:100000000C9434000C943E000C943E000C943E0082
:100010000C943E000C943E000C943E000C943E0068
:100020000C943E000C943E000C943E000C943E0058
:100030000C943E000C943E000C943E000C943E0048
:100040000C943E000C943E000C943E000C943E0038
:100050000C943E000C943E000C943E000C943E0028
:100060000C943E000C943E0011241FBECFEFD8E04C
:10007000DEBFCDBF0E945D000C946A000C940000AE
:1000800082E08093C0001092C50080E18093C4009C
:1000900086E08093C20088E18093C100089580913A
:1000A000C00087FFFCCF8091C60008959091C000EA
:1000B00095FFFCCF8093C60008950E9440000E94E7
:1000C0004F000E9456008FE39CE90197F1F700C0B2
:0800D0000000F5CFF894FFCF0A
:00000001FF
