:100000000C9434000C943E000C943E000C943E0082
:100010000C943E000C943E000C943E000C943E0068
:100020000C943E000C943E000C943E000C943E0058
:100030000C943E000C943E000C943E000C943E0048
:100040000C943E000C943E000C943E000C943E0038
:100050000C943E000C943E000C943E000C943E0028
:100060000C943E000C943E0011241FBECFEFD8E04C
:10007000DEBFCDBF0E9456000C9465000C940000BA
:1000800082E08093C0001092C50080E18093C4009C
:1000900086E08093C20088E08093C100089590912B
:1000A000C00095FFFCCF8093C60008950E944000D9
:1000B0008AE50E944F002FEF83ED90E321508040AE
:0E00C0009040E1F700C00000F3CFF894FFCFAE
:00000001FF
