:100000000C9434000C943E000C943E000C943E0082
:100010000C943E000C943E000C943E000C943E0068
:100020000C943E000C943E000C943E000C943E0058
:100030000C943E000C943E000C943E000C943E0048
:100040000C943E000C943E000C943E000C943E0038
:100050000C943E000C943E000C943E000C943E0028
:100060000C943E000C943E0011241FBECFEFD8E04C
:10007000DEBFCDBF0E9440000C94E6000C9400004F
:10008000219A8AB18B7E8AB98BB184618BB98091B8
:1000900081008861809381008091800082608093DC
:1000A00080008091800080688093800088E09DE3DC
:1000B00090938700809386008091860090918700BE
:1000C0006AE070E00E94D20070938900609388001B
:1000D000809181008560809381002091880030911B
:1000E0008900EAE0F0E04A9928C08091860090916A
:1000F000870028173907C0F4809186009091870007
:10010000BF010E94D200260F371F80918600909178
:1001100087008217930720F4209186003091870092
:1001200030938900209388004FEF83EC99E0415091
:1001300080409040E1F700C000004C99D4CF8091FE
:10014000860090918700BF010E94D200621773075A
:10015000F8F48091860090918700BF010E94D20040
:10016000261B370B8091860090918700BF010E946B
:10017000D2002617370740F48091860090918700BF
:10018000BF010E94D2009B01309389002093880018
:100190004FEF83EC99E0415080409040E1F700C080
:1001A0000000A1CFAA1BBB1B51E107C0AA1FBB1FA8
:1001B000A617B70710F0A61BB70B881F991F5A95F3
:1001C000A9F780959095BC01CD010895F894FFCFD3
:00000001FF
