:100000000C9434000C9449000C9449000C94490061
:100010000C9449000C9449000C9449000C9449003C
:100020000C9449000C9449000C9449000C948D00E8
:100030000C9449000C9449000C9449000C9449001C
:100040000C9449000C9449000C9449000C9449000C
:100050000C9449000C9449000C9449000C944900FC
:100060000C9449000C94490011241FBECFEFD8E036
:10007000DEBFCDBF11E0A0E0B1E0ECE7F1E002C0EF
:1000800005900D92AE30B107D9F70E94B5000C94DF
:10009000BC000C94000082E08093C0001092C50068
:1000A00080E18093C40086E08093C20088E0809362
:1000B000C1000895E1E8F0E0108210928000808194
:1000C0008860808382E19AE790938900809388001A
:1000D000AFE6B0E08C9182608C93808185608083F4
:1000E0000895AC0190E0FA01E90FF11D208122236F
:1000F00041F08091C00085FFFCCF2093C6009F5F38
:10010000F2CF08958BE098E02091C00025FFFCCF4E
:100110009093C6008150C1F708951F920F920FB6B9
:100120000F9211242F933F934F935F936F937F937D
:100130008F939F93AF93BF93EF93FF930E9482009F
:1001400080E091E00E947100FF91EF91BF91AF912B
:100150009F918F917F916F915F914F913F912F91DF
:100160000F900FBE0F901F901895F8940E944B00AF
:0C0170000E945A007894FFCFF894FFCF53
:0E017C0048656C6C6F20576F7264210A00009A
:00000001FF
