:100000000C9434000C943E000C943E000C943E0082
:100010000C943E000C943E000C943E000C943E0068
:100020000C943E000C943E000C943E000C943E0058
:100030000C943E000C943E000C943E000C943E0048
:100040000C943E000C943E000C943E000C943E0038
:100050000C943E000C943E000C943E000C943E0028
:100060000C943E000C943E0011241FBECFEFD8E04C
:10007000DEBFCDBF0E9440000C9491000C940000A4
:100080008AB188668AB980E028E638E248E450E61A
:1000900068E070E4E0E2811103C09BB19E2716C0C6
:1000A0009BB1813011F4972711C0823011F496274B
:1000B0000DC0833011F4952709C0843011F49427C2
:1000C00005C0853011F4932701C092279BB99FEF9B
:1000D000A3EDF0E39150A040F040E1F700C0000034
:1000E0009BB1811102C09E2715C0813011F4972762
:1000F00011C0823011F496270DC0833011F495277A
:1001000009C0843011F4942705C0853011F4932779
:1001100001C092279BB98F5F873008F4BCCF80E085
:06012000BCCFF894FFCFF4
:00000001FF
