:100000000C9434000C9451000C9451000C94510049
:100010000C9451000C9451000C9451000C9451001C
:100020000C9451000C9451000C9451000C9451000C
:100030000C9451000C9451000C9451000C945100FC
:100040000C9451000C9451000C9451000C945100EC
:100050000C9451000C9451000C9451000C945100DC
:100060000C9451000C94510011241FBECFEFD8E026
:10007000DEBFCDBF11E0A0E0B1E0E8E1F8E002C0F2
:1000800005900D92A232B107D9F721E0A2E2B1E0CA
:1000900001C01D92A432B207E1F70E9413020C9432
:1000A0000A040C94000082E08093C0001092C50006
:1000B00080E18093C40086E08093C20088E0809352
:1000C000C10008959091C00095FFFCCF8093C600B9
:1000D0000895AC0190E0FA01E90FF11D208122237F
:1000E00041F08091C00085FFFCCF2093C6009F5F48
:1000F000F2CF0895EF92FF920F931F93CF930E9438
:10010000E0028B016115710541F480E3CF911F91ED
:100110000F91FF90EF900C946200C0E02AE030E075
:10012000CF5FCB01B9010E945F0261157105C1F774
:100130008AE0E82EF12CCC2379F0C80121E0B70148
:100140000E945F02C21719F0CB012F5FF8CF805DCC
:100150000E946200C150EFCFCF911F910F91FF908D
:10016000EF900895EF92FF920F931F93CF9320E0AB
:1001700030E048EC52E40E949D0320E030E040E093
:100180005FE30E9474020E94E002CB0164E670E02B
:100190000E945F028C018EE20E946200011511052F
:1001A00041F480E3CF911F910F91FF90EF900C9459
:1001B0006200C801C0E02AE030E0CF5FB9010E94D0
:1001C0005F02CB010097C9F78AE0E82EF12CCC231F
:1001D00079F0C80121E0B7010E945F02C21719F04F
:1001E000CB012F5FF8CF805D0E946200C150EFCF3E
:1001F000CF911F910F91FF90EF9008951092B90049
:1002000088E48093B80084E08093BC00089584EA79
:100210008093BC008091BC0087FFFCCF8091B90027
:10022000887F883011F0803159F4809122018093C9
:10023000BB0084E88093BC008091BC0087FFFCCFAA
:1002400008958093BB0084E88093BC008091BC003B
:1002500087FFFCCF8091B900887F089584EC80935C
:10026000BC008091BC0087FFFCCF8091BB0008954B
:1002700084E88093BC008091BC0087FFFCCF809114
:10028000BB00089584E98093BC0008958F929F92EB
:10029000AF92BF92EF92FF920F931F93CF93DF9392
:1002A00000D000D000D0CDB7DEB78C017B0180E755
:1002B00090E090932301809322010E9407018CEA31
:1002C0000E94210183E30E94210180E00E9421011C
:1002D00084E98093BC002FEF87EE93E021508040AB
:1002E0009040E1F700C0000081E790E09093230187
:1002F000809322010E940701FE0131965F014E01A9
:10030000F6E08F0E911C0E942E01F50181935F0192
:10031000E815F905C1F70E9438018E8384E98093BE
:10032000BC00898187FF13C080E090ECA9E7B4ECA2
:10033000F80180839183A283B38380E090E0A0E8FA
:10034000BFEBF70180839183A283B3835BC02C81D1
:100350008D809E80982489249824A12CB12C822FF2
:100360008F70A82A6A81862F90E0A0E0B0E0AC01EF
:10037000BD018CE0440F551F661F771F8A95D1F78A
:100380008B8190E0A0E0B0E034E0880F991FAA1FB5
:10039000BB1F3A95D1F7842B952BA62BB72B229513
:1003A0002F70BC01CD01622B0E940F0320E030E0D2
:1003B00040E855E30E949D0320E030E048EC52E421
:1003C0000E949D03F7016083718382839383C5013B
:1003D000B4010E940F0320E030E040E855E30E94A2
:1003E0009D0320E030E048E453E40E949D0320E0B8
:1003F00030E048E452E40E947302F80160837183A4
:100400008283938326960FB6F894DEBF0FBECDBFCE
:10041000DF91CF911F910F91FF90EF90BF90AF9020
:100420009F908F900895CF93DF93CDB7DEB7289735
:100430000FB6F894DEBF0FBECDBFF8940E945300F4
:100440000E94FE0078942FEF81EE94E021508040CE
:100450009040E1F700C00000BE016F5F7F4FCE010A
:1004600005960E94460180E091E00E946900698142
:100470007A818B819C810E947A0069817A818B814B
:100480009C810E94B2008BE091E00E9469006D8126
:100490007E818F8198850E947A006D817E818F8117
:1004A00098850E94B2008CE191E00E9469002FEFD4
:1004B00087EA91E6215080409040E1F7CBCFAA1B1C
:1004C000BB1B51E107C0AA1FBB1FA617B70710F03F
:1004D000A61BB70B881F991F5A95A9F78095909571
:1004E000BC01CD0108955058BB27AA270E948B025A
:1004F0000C9463030E94550338F00E945C0320F0C3
:1005000039F49F3F19F426F40C9452030EF4E0954D
:10051000E7FB0C944C03E92F0E94740358F3BA17BD
:10052000620773078407950720F079F4A6F50C9409
:1005300096030EF4E0950B2EBA2FA02D0B01B901F6
:1005400090010C01CA01A0011124FF27591B99F049
:10055000593F50F4503E68F11A16F040A22F232F55
:10056000342F4427585FF3CF469537952795A795A5
:10057000F0405395C9F77EF41F16BA0B620B730B4C
:10058000840BBAF09150A1F0FF0FBB1F661F771FBD
:10059000881FC2F70EC0BA0F621F731F841F48F472
:1005A000879577956795B795F7959E3F08F0B0CFFB
:1005B0009395880F08F09927EE0F979587950895E2
:1005C0000E947C0388F09F5798F0B92F9927B75164
:1005D000B0F0E1F0660F771F881F991F1AF0BA95E7
:1005E000C9F714C0B13091F00E949603B1E00895AC
:1005F0000C949603672F782F8827B85F39F0B93F9E
:10060000CCF3869577956795B395D9F73EF4909599
:100610008095709561957F4F8F4F9F4F0895E89417
:1006200009C097FB3EF490958095709561957F4F3A
:100630008F4F9F4F9923A9F0F92F96E9BB279395E8
:10064000F695879577956795B795F111F8CFFAF4F8
:10065000BB0F11F460FF1BC06F5F7F4F8F4F9F4F29
:1006600016C0882311F096E911C0772321F09EE887
:10067000872F762F05C0662371F096E8862F70E0ED
:1006800060E02AF09A95660F771F881FDAF7880FC7
:100690009695879597F9089597F99F6780E870E098
:1006A00060E008959FEF80EC089500240A941616E8
:1006B000170618060906089500240A941216130650
:1006C000140605060895092E0394000C11F48823DE
:1006D00052F0BB0F40F4BF2B11F460FF04C06F5FFA
:1006E0007F4F8F4F9F4F089557FD9058440F551FD0
:1006F00059F05F3F71F04795880F97FB991F61F0A4
:100700009F3F79F087950895121613061406551F1A
:10071000F2CF4695F1DF08C0161617061806991F86
:10072000F1CF86957105610508940895E894BB277B
:1007300066277727CB0197F908950E94B0030C94A0
:1007400063030E94550338F00E945C0320F0952358
:1007500011F00C944C030C94520311240C94970345
:100760000E94740370F3959FC1F3950F50E0551FDD
:10077000629FF001729FBB27F00DB11D639FAA27F6
:10078000F00DB11DAA1F649F6627B00DA11D661F45
:10079000829F2227B00DA11D621F739FB00DA11D66
:1007A000621F839FA00D611D221F749F3327A00D20
:1007B000611D231F849F600D211D822F762F6A2FBC
:1007C00011249F5750409AF0F1F088234AF0EE0F21
:1007D000FF1FBB1F661F771F881F91505040A9F74E
:1007E0009E3F510580F00C944C030C9497035F3F9F
:1007F000E4F3983ED4F3869577956795B795F7958A
:10080000E7959F5FC1F7FE2B880F911D9695879501
:0808100097F90895F894FFCF59
:1008180048756D69646974793A20002043205465ED
:100828006D70657261747572653A200020250A0D35
:020838000000BE
:00000001FF
