:100000000C9434000C943E000C943E000C943E0082
:100010000C943E000C943E000C943E000C943E0068
:100020000C943E000C943E000C943E000C943E0058
:100030000C943E000C943E000C943E000C943E0048
:100040000C943E000C943E000C943E000C943E0038
:100050000C943E000C943E000C943E000C943E0028
:100060000C943E000C943E0011241FBECFEFD8E04C
:10007000DEBFCDBF0E9440000C9470000C940000C5
:100080008AB188668AB980E028E030E440E28111D4
:1000900003C09BB1942706C09BB1813011F4932714
:1000A00001C092279BB95FEF63ED90E35150604030
:1000B0009040E1F700C00000811103C09BB194277C
:1000C00009C0813019F49BB1932704C0823019F420
:1000D0009BB192279BB98F5F8330C8F280E0D9CF64
:0400E000F894FFCFC2
:00000001FF
