:100000000C9434000C9451000C9451000C94510049
:100010000C9451000C9451000C9451000C9451001C
:100020000C9451000C9451000C9451000C9451000C
:100030000C9451000C9451000C9451000C945100FC
:100040000C9451000C9451000C9451000C945100EC
:100050000C9451000C9451000C9451000C945100DC
:100060000C9451000C94510011241FBECFEFD8E026
:10007000DEBFCDBF11E0A0E0B1E0E8E8F2E002C0F1
:1000800005900D92A630B107D9F721E0A6E0B1E0C6
:1000900001C01D92A830B207E1F70E9402010C9442
:1000A00042010C94000082E08093C0001092C500D1
:1000B00080E18093C40086E08093C20088E0809352
:1000C000C10008959091C00095FFFCCF8093C600B9
:1000D0000895AC0190E0FA01E90FF11D208122237F
:1000E00041F08091C00085FFFCCF2093C6009F5F48
:1000F000F2CF0895EF92FF921F93CF93DF939C016D
:10010000009741F480E3DF91CF911F91FF90EF9032
:100110000C94620010E0EAE0F0E01F5FBF010E9473
:100120002E01CB010097C9F7E9018AE0E82EF12CF6
:10013000112379F0CE0121E0B7010E942E011217A0
:1001400019F0CB012F5FF8CF805D0E946200115043
:10015000EFCFDF91CF911F91FF90EF900895109214
:10016000B90088E48093B80084E08093BC000895CF
:1001700084EA8093BC008091BC0087FFFCCF809113
:10018000B900887F883011F0803191F49091060198
:100190009093BB0094E89093BC009091BC0097FFB3
:1001A000FCCF90E00E947A0080E091E00C9469001E
:1001B000089584E98093BC0008951F93CF93DF9343
:1001C00080E790E090930701809306010E94B800B9
:1001D000CCEBD0E014E918832FEF87EE93E02150A9
:1001E00080409040E1F700C0000081E790E09093EC
:1001F0000701809306010E94B8001883DF91CF9118
:100200001F910895CF93DF93CDB7DEB728970FB630
:10021000F894DEBF0FBECDBFF8940E9453000E9439
:10022000AF0078942FEF81EE94E021508040904011
:10023000E1F700C00000BE016F5F7F4FCE01059661
:100240000E94DD0083E091E00E9469002FEF87EAC1
:1002500091E6215080409040E1F7EBCFAA1BBB1BF9
:1002600051E107C0AA1FBB1FA617B70710F0A61BB6
:10027000B70B881F991F5A95A9F780959095BC01D7
:08028000CD010895F894FFCFB1
:060288002C20000A0D000D
:00000001FF
