:100000000C9434000C9449000C9449000C94490061
:100010000C9449000C9449000C9449000C9449003C
:100020000C9449000C9449000C9449000C94EE0087
:100030000C9449000C9449000C9449000C9449001C
:100040000C9449000C9449000C9449000C9449000C
:100050000C9449000C9449000C9449000C944900FC
:100060000C9449000C94490011241FBECFEFD8E036
:10007000DEBFCDBF11E0A0E0B1E0E8E6F2E002C0F3
:1000800005900D92A431B107D9F70E9429010C9473
:1000900032010C94000082E08093C0001092C500F1
:1000A00080E18093C40086E08093C20088E0809362
:1000B000C1000895EAE7F0E080E8808380818760EE
:1000C0008083089580E680937C0080917A0080642C
:1000D00080937A0080917A0086FDFCCF8091790030
:1000E000089581E680937C0080917A0080648093FB
:1000F0007A0080917A0086FDFCCF80917900089586
:1001000082E680937C0080917A00806480937A00FC
:1001100080917A0086FDFCCF8091790008959091BE
:10012000C00095FFFCCF8093C6000895AC0190E01D
:10013000FA01E90FF11D2081222341F08091C000D6
:1001400085FFFCCF2093C6009F5FF2CF08958AE021
:1001500098E02091C00025FFFCCF9093C60081500D
:10016000C1F708951F93CF93DF93182F12951F7037
:10017000D82FDF70C0E0EC2FF0E0E050FF4F80811F
:10018000882331F0C11302C00E948F00CF5FF3CFEC
:10019000C0E0EC2FF0E0E050FF4F8081882331F089
:1001A000CD1302C00E948F00CF5FF3CFDF91CF91BC
:1001B0001F910895E1E8F0E080818860808388E302
:1001C00091E090938900809388008081856080838E
:1001D000EFE6F0E080818260808308951F920F92A5
:1001E0000FB60F9211242F933F934F935F936F930A
:1001F0007F938F939F93AF93BF93EF93FF930E944F
:1002000062000E94B20081E191E00E9496000E948B
:1002100071000E94B20081E191E00E9496000E946C
:1002200080000E94B2008AE00E948F000E94A70016
:10023000FF91EF91BF91AF919F918F917F916F91BE
:100240005F914F913F912F910F900FBE0F901F9094
:100250001895F8940E944B000E945A000E94DA0000
:080260007894FFCFF894FFCF62
:100268003031323334353637383961626364656624
:04027800002C200036
:00000001FF
