:100000000C9434000C9449000C9449000C94490061
:100010000C9449000C9449000C9449000C9449003C
:100020000C9449000C9449000C9449000C94E50090
:100030000C9449000C9449000C9449000C9449001C
:100040000C9449000C9449000C9449000C9449000C
:100050000C9449000C9449000C9449000C944900FC
:100060000C9449000C94490011241FBECFEFD8E036
:10007000DEBFCDBF11E0A0E0B1E0EAEBF4E002C0EA
:1000800005900D92A430B107D9F70E940F010C948E
:100090005B020C94000082E08093C0001092C500C7
:1000A00080E18093C40086E08093C20088E0809362
:1000B000C1000895EAE7F0E080E8808380818760EE
:1000C0008083089588EC80937C0080917A0080641E
:1000D00080937A0080917A0086FDFCCF6091780051
:1000E0008091790070E0782B6A53714080E090E055
:1000F0000E94CD0126EF38E24CE95FE30E942C011B
:100100000E949E01CB0108959091C00095FFFCCF05
:100110008093C6000895AC0190E0FA01E90FF11D4B
:100120002081222341F08091C00085FFFCCF2093E5
:10013000C6009F5FF2CF0895EF92FF921F93CF9377
:10014000DF939C01009741F480E3DF91CF911F91F1
:10015000FF90EF900C94840010E0EAE0F0E01F5F65
:10016000BF010E941801CB010097C9F7E9018AE09D
:10017000E82EF12C112379F0CE0121E0B7010E9485
:100180001801121719F0CB012F5FF8CF805D0E9484
:1001900084001150EFCFDF91CF911F91FF90EF902E
:1001A0000895E1E8F0E080818860808388E391E051
:1001B0009093890080938800808185608083EFE63A
:1001C000F0E080818260808308951F920F920FB6C5
:1001D0000F9211242F933F934F935F936F937F93CD
:1001E0008F939F93AF93BF93EF93FF930E9462000F
:1001F0000E949C0080E091E00E948B00FF91EF91B3
:10020000BF91AF919F918F917F916F915F914F912E
:100210003F912F910F900FBE0F901F901895F8945B
:100220000E944B000E945A000E94D1007894FFCF98
:10023000AA1BBB1B51E107C0AA1FBB1FA617B7070C
:1002400010F0A61BB70B881F991F5A95A9F7809528
:100250009095BC01CD0108950E9440010C942102AB
:100260000E941A0258F00E94130240F029F45F3FE6
:1002700029F00C940A0251110C9455020C941002AE
:100280000E94320268F39923B1F3552391F3951B31
:10029000550BBB27AA2762177307840738F09F5FA7
:1002A0005F4F220F331F441FAA1FA9F335D00E2E14
:1002B0003AF0E0E832D091505040E695001CCAF781
:1002C0002BD0FE2F29D0660F771F881FBB1F261744
:1002D00037074807AB07B0E809F0BB0B802DBF011B
:1002E000FF2793585F4F3AF09E3F510578F00C94EA
:1002F0000A020C9455025F3FE4F3983ED4F38695CE
:1003000077956795B795F7959F5FC9F7880F911D0A
:100310009695879597F90895E1E0660F771F881FF6
:10032000BB1F621773078407BA0720F0621B730BA9
:10033000840BBA0BEE1F88F7E09508950E943A02ED
:1003400088F09F5798F0B92F9927B751B0F0E1F096
:10035000660F771F881F991F1AF0BA95C9F714C046
:10036000B13091F00E945402B1E008950C9454020F
:10037000672F782F8827B85F39F0B93FCCF386957F
:1003800077956795B395D9F73EF4909580957095DC
:1003900061957F4F8F4F9F4F0895E89409C097FB59
:1003A0003EF490958095709561957F4F8F4F9F4F4C
:1003B0009923A9F0F92F96E9BB279395F695879590
:1003C00077956795B795F111F8CFFAF4BB0F11F453
:1003D00060FF1BC06F5F7F4F8F4F9F4F16C08823FA
:1003E00011F096E911C0772321F09EE8872F762F30
:1003F00005C0662371F096E8862F70E060E02AF071
:100400009A95660F771F881FDAF7880F969587955C
:1004100097F9089597F99F6780E870E060E0089584
:100420009FEF80EC089500240A941616170618060C
:100430000906089500240A941216130614060506E8
:100440000895092E0394000C11F4882352F0BB0F79
:1004500040F4BF2B11F460FF04C06F5F7F4F8F4FDC
:100460009F4F089557FD9058440F551F59F05F3F17
:1004700071F04795880F97FB991F61F09F3F79F0C6
:1004800087950895121613061406551FF2CF469548
:10049000F1DF08C0161617061806991FF1CF8695CA
:1004A0007105610508940895E894BB2766277727AE
:0A04B000CB0197F90895F894FFCFEF
:0404BA000A0D000027
:00000001FF
