:100000000C9434000C9449000C9449000C94490061
:100010000C9449000C9449000C9449000C9449003C
:100020000C9449000C9449000C9449000C94D8009D
:100030000C9449000C9449000C9449000C9449001C
:100040000C9449000C9449000C9449000C9449000C
:100050000C9449000C9449000C9449000C944900FC
:100060000C9449000C94490011241FBECFEFD8E036
:10007000DEBFCDBF11E0A0E0B1E0E2E1F2E002C0FE
:1000800005900D92A231B107D9F70E94FE000C94A1
:1000900007010C94000082E08093C0001092C5001C
:1000A00080E18093C40086E08093C20088E0809362
:1000B000C100089580E680937C00EAE7F0E080E8E4
:1000C0008083808187608083089580917A00806436
:1000D00080937A0080917A0086FDFCCF8091790030
:1000E00008959091C00095FFFCCF8093C6000895BD
:1000F000AC0190E0FA01E90FF11D2081222341F0CB
:100100008091C00085FFFCCF2093C6009F5FF2CF97
:1001100008958091C00085FFFCCF88E08093C600E1
:100120008091C00085FFFCCF88E08093C6000895D1
:100130001F93CF93DF93182F12951F70D82FDF7066
:10014000C0E0EC2FF0E0E050FF4F8081882331F0D9
:10015000C11302C00E947100CF5FF3CFC0E0EC2F4B
:10016000F0E0E050FF4F8081882331F0CD1302C0D2
:100170000E947100CF5FF3CF8AE00E947100DF918F
:10018000CF911F910C948900E1E8F0E080818860B4
:10019000808388E391E09093890080938800808138
:1001A00085608083EFE6F0E080818260808308953F
:1001B0001F920F920FB60F9211242F933F934F93DC
:1001C0005F936F937F938F939F93AF93BF93EF93BF
:1001D000FF930E9465000E949800FF91EF91BF91EC
:1001E000AF919F918F917F916F915F914F913F91CF
:1001F0002F910F900FBE0F901F901895F8940E94AA
:100200004B000E945A000E94C4007894FFCFF894DB
:02021000FFCF1E
:10021200303132333435363738396162636465667A
:020222000000DA
:00000001FF
