:100000000C9434000C9446000C9446000C9446006A
:100010000C9446000C9446000C9446000C94460048
:100020000C9446000C9446000C9446000C94460038
:100030000C9446000C9446000C9446000C94460028
:100040000C9446000C9446000C9446000C94460018
:100050000C9446000C9446000C9446000C94460008
:100060000C9446000C94460011241FBECFEFD8E03C
:10007000DEBFCDBF21E0A0E0B1E001C01D92A13004
:10008000B207E1F70E9483000C949B000C940000DF
:1000900088BD67BD4093B40008958095853550F4C0
:1000A000982F990F890F982F909598BD17BC809322
:1000B000B40008958A3A58F48555982F990F890FFE
:1000C000982F909518BC87BD9093B40008958A5AD4
:1000D000982F990F890F982F909588BD97BD1092F2
:1000E000B400089584B5836A84BD85B5856085BDF7
:1000F000E0EBF0E0808183628083E1EBF0E08081DF
:100100008760808308958AB188668AB90E947200E8
:10011000809100010E944D00809100018F5F8093CB
:1001200000012FEF86E791E0215080409040E1F7F9
:0A01300000C00000EDCFF894FFCFEF
:00000001FF
