:100000000C9434000C9446000C9446000C9446006A
:100010000C9446000C9446000C9446000C94460048
:100020000C9446000C9446000C9446000C94460038
:100030000C9446000C9446000C9472000C944600FC
:100040000C9446000C9446000C9446000C94460018
:100050000C9446000C9446000C9446000C94460008
:100060000C9446000C94460011241FBECFEFD8E03C
:10007000DEBFCDBF21E0A0E0B1E001C01D92A13004
:10008000B207E1F70E94B9000C94C0000C94000084
:1000900088BD67BD4093B40008958095853550F4C0
:1000A000982F990F890F982F909598BD17BC809322
:1000B000B40008958A3A58F48555982F990F890FFE
:1000C000982F909518BC87BD9093B40008958A5AD4
:1000D000982F990F890F982F909588BD97BD1092F2
:1000E000B40008951F920F920FB60F9211242F9310
:1000F0003F934F935F936F937F938F939F93AF93B0
:10010000BF93EF93FF93809100010E944D009BB13C
:1001100088E689278BB9809100018F5F8093000169
:100120002FEF80E792E0215080409040E1F700C03F
:100130000000FF91EF91BF91AF919F918F917F91BF
:100140006F915F914F913F912F910F900FBE0F9044
:100150001F90189583EA84BD82E085BD93E2909359
:10016000B0008093B100EEE6F0E080818260808391
:1001700008958AB188668AB90E94AA007894FFCF50
:04018000F894FFCF21
:00000001FF
