:100000000C9434000C9449000C9449000C94490061
:100010000C9449000C9449000C9449000C9449003C
:100020000C9449000C9449000C9449000C94FC0079
:100030000C9449000C9449000C9449000C9449001C
:100040000C9449000C9449000C9449000C9449000C
:100050000C9449000C9449000C9449000C944900FC
:100060000C9449000C94490011241FBECFEFD8E036
:10007000DEBFCDBF11E0A0E0B1E0EAEAF2E002C0ED
:1000800005900D92A630B107D9F70E9436010C9465
:1000900053010C94000082E08093C0001092C500D0
:1000A00080E18093C40086E08093C20088E0809362
:1000B000C1000895EAE7F0E080E8808380818760EE
:1000C0008083089580E480937C0080917A0080642E
:1000D00080937A0080917A0086FDFCCF8091780031
:1000E0002091790090E0922B089581E480937C0028
:1000F00080917A00806480937A0080917A0086FDF6
:10010000FCCF809178002091790090E0922B0895A7
:1001100082E480937C0080917A00806480937A00EE
:1001200080917A0086FDFCCF809178002091790043
:1001300090E0922B08959091C00095FFFCCF8093A2
:10014000C6000895AC0190E0FA01E90FF11D20818D
:10015000222341F08091C00085FFFCCF2093C60090
:100160009F5FF2CF0895EF92FF921F93CF93DF939B
:100170009C01009741F480E3DF91CF911F91FF90A4
:10018000EF900C949B0010E0EAE0F0E01F5FBF01ED
:100190000E943F01CB010097C9F7E9018AE0E82EF0
:1001A000F12C112379F0CE0121E0B7010E943F012B
:1001B000121719F0CB012F5FF8CF805D0E949B00D2
:1001C0001150EFCFDF91CF911F91FF90EF900895E5
:1001D000E1E8F0E080818860808388E391E090939B
:1001E000890080938800808185608083EFE6F0E05D
:1001F00080818260808308951F920F920FB60F92C4
:1002000011242F933F934F935F936F937F938F931B
:100210009F93AF93BF93EF93FF930E9462000E945E
:10022000B30080E091E00E94A2000E9475000E944D
:10023000B30080E091E00E94A2000E9488000E942A
:10024000B30083E091E00E94A200FF91EF91BF9183
:10025000AF919F918F917F916F915F914F913F915E
:100260002F910F900FBE0F901F901895F8940E9439
:100270004B000E945A000E94E8007894FFCFAA1B0E
:10028000BB1B51E107C0AA1FBB1FA617B70710F081
:10029000A61BB70B881F991F5A95A9F780959095B3
:0A02A000BC01CD010895F894FFCFD2
:0602AA002C20000A0D00EB
:00000001FF
