:100000000C9434000C9451000C9451000C94510049
:100010000C9451000C9451000C9451000C9451001C
:100020000C9451000C9451000C9451000C947D00E0
:100030000C9451000C9451000C9451000C945100FC
:100040000C9451000C9451000C94B8010C94510084
:100050000C9451000C9451000C9451000C945100DC
:100060000C9451000C94510011241FBECFEFD8E026
:10007000DEBFCDBF11E0A0E0B1E0EEE4F4E002C0ED
:1000800005900D92A835B107D9F721E0A8E5B1E0B8
:1000900001C01D92A538B207E1F70E940B020C9433
:1000A00025020C94000082E08093C0001092C500ED
:1000B00080E18093C40086E08093C200E1ECF0E030
:1000C00088E180838081806880830895E1E8F0E0A2
:1000D00010821092800080818860808389E09DE397
:1000E0009093890080938800AFE6B0E08C918260A5
:1000F0008C9380818560808308951F920F920FB644
:100100000F9211248F939F9380915801813021F495
:1001100095B187E0892785B99F918F910F900FBE88
:100120000F901F90189590E028E0981741F03091BB
:10013000C00035FFFCCF2093C6009F5FF6CF089527
:100140009091C00095FFFCCF8093C6000895282FA2
:10015000FC018E2F821B861740F48091C00085FF22
:10016000FCCF81918093C600F4CF08959C0180E07C
:10017000F901E80FF11D9081992311F08F5FF8CFFD
:100180000895CF92DF92FF920F931F93CF93DF9347
:10019000E0915A01F0E0E55AFE4F108280E791E0CD
:1001A0000E94B600082F8BE591E00E94B600182F40
:1001B000C0900201D0900301C6010E94B600F82E43
:1001C000C0910001D0910101CE010E94B60020E053
:1001D000622F70E0FB01E059FE4F4081442369F03B
:1001E00050E0F601E60FF71F6081062E000C770B3A
:1001F0004617570711F42F5FEBCF90E0692F70E09F
:10020000FB01E55AFE4F4081442369F050E0FE01B6
:10021000E60FF71F6081062E000C770B4617570775
:1002200011F49F5FEBCFCFE0C10F2F1135C09813B2
:1002300033C0021331C019132FC08AE00E94A000FE
:100240008C2F0E94930067E08FE091E00E94A7004E
:100250008AE00E94A00087E00E94930067E084E0AB
:1002600091E00E94A70068E080E791E00E94A7006B
:1002700061E085E191E00E94A7008AE00E94A00071
:1002800080E10E949300809159018F5F8093590112
:1002900081E08093580123C08AE00E94A0008C2F47
:1002A0000E9493006AE08CE091E00E94A7008AE03F
:1002B0000E94A0008AE00E94930061E187E191E042
:1002C0000E94A7008AE00E94A00081E10E949300A2
:1002D0006FE089E291E00E94A7001092590110920C
:1002E0005A01DF91CF911F910F91FF90DF90CF9036
:1002F000089580915A018823A1F0815080935A017A
:100300002091590190E0FC01211103C0E059FE4FFA
:1003100002C0E55AFE4F108263E089E391E00C943D
:10032000A70008958AE00E94A00080915A01865F8C
:100330000E9493006AE08DE391E00E94A700E091A3
:100340005A01F0E0E059FE4F108210925A0181E00C
:1003500080935901089590915901913009F48AE2EE
:100360000E94A00080915A018F5F80935A010895E6
:100370001F920F920FB60F9211242F933F934F931A
:100380005F936F937F938F939F93AF93BF93EF93FD
:10039000FF938091C6008F3719F40E9479012AC01B
:1003A00040915A01909159014431A0F4242F30E03A
:1003B000F901911109C0E059FE4F80838D30A9F4F5
:1003C0008DE00E94920116C0E55AFE4F80838D3069
:1003D00051F404C08D3039F4992391F3913019F41C
:1003E0000E94C10007C0923028F4443118F490E014
:1003F0000E94AB01FF91EF91BF91AF919F918F91BF
:100400007F916F915F914F913F912F910F900FBE10
:100410000F901F90189584B1876084B9F8940E945A
:10042000530061E187E191E00E94A7008AE00E9409
:10043000A00081E10E9493006FE089E291E00E94B8
:0E044000A70078940E946600FFCFF894FFCFCB
:10044E0048014F0157656C636F6D20004E6F204D54
:10045E0061746368202100456E74657220796F7532
:10046E0072206C6F67696E3A002020202020557331
:10047E0065726E616D653A20000820080050617348
:10048E0073776F72643A200031323334353600613F
:08049E006D7567697368610068
:00000001FF
