:100000000C9434000C943E000C943E000C943E0082
:100010000C943E000C943E000C943E000C943E0068
:100020000C943E000C943E000C943E000C94A700EF
:100030000C943E000C943E000C943E000C943E0048
:100040000C943E000C943E000C943E000C943E0038
:100050000C943E000C943E000C943E000C943E0028
:100060000C943E000C943E0011241FBECFEFD8E04C
:10007000DEBFCDBF0E94E2000C94F1000C940000A2
:10008000EAE7F0E080E880838081876080830895DC
:1000900080E680937C0080917A00806480937A006F
:1000A00080917A0086FDFCCF8091790090E00895E0
:1000B00084B5836A84BD85B5856085BDE0EBF0E0DD
:1000C000808183628083E1EBF0E0808187608083C0
:1000D0000895E1E8F0E080818860808388E391E022
:1000E0009093890080938800808185608083EFE60B
:1000F000F0E0808182608083089588BD67BD409371
:10010000B40008958095853550F4982F990F890F84
:10011000982F909598BD17BC8093B40008958A3AA3
:1001200058F48555982F990F890F982F909518BCE2
:1001300087BD9093B40008958A5A982F990F890F1C
:10014000982F909588BD97BD1092B40008951F9286
:100150000F920FB60F9211242F933F934F935F93FB
:100160006F937F938F939F93AF93BF93CF93EF93AF
:10017000FF930E944800C82F0E948200CF3310F4E2
:1001800015B80EC0CF3710F481E009C0CD3B10F494
:1001900083E005C0CF3F11F087E001C087E185B95A
:1001A000FF91EF91CF91BF91AF919F918F917F91EF
:1001B0006F915F914F913F912F910F900FBE0F90D4
:1001C0001F901895F8940E9440000E9458000E94C9
:1001D000690078948AB188668AB984B1876184B9E4
:0601E000FFCFF894FFCFF1
:00000001FF
