:100000000C9434000C9446000C9446000C9446006A
:100010000C9446000C9446000C9446000C94460048
:100020000C9446000C9446000C9446000C94460038
:100030000C9446000C9446000C946D000C94460001
:100040000C9446000C9446000C9446000C94460018
:100050000C9446000C9446000C9446000C94460008
:100060000C9446000C94460011241FBECFEFD8E03C
:10007000DEBFCDBF21E0A0E0B1E001C01D92A13004
:10008000B207E1F70E94A0000C94A6000C940000B7
:1000900084B5826084BDEEE6F0E08081826080837A
:1000A000E1E8F0E0808188618083A0E8B0E08C9195
:1000B00082688C9384E690E090938700809386001A
:1000C00010928900109288008DE487BD85B5856007
:1000D00085BD80818560808308951F920F920FB641
:1000E0000F9211248F939F938091880090918900A3
:1000F0008436910518F081E080930001809188009A
:1001000090918900892B11F41092000180910001D7
:10011000813031F48091880090918900019705C069
:100120008091880090918900019690938900809336
:1001300088009F918F910F900FBE0F901F90189580
:10014000F894219A0E9448007894FFCFF894FFCF4A
:00000001FF
