:100000000C9434000C943E000C943E000C943E0082
:100010000C943E000C943E000C943E000C943E0068
:100020000C943E000C943E000C943E000C943E0058
:100030000C943E000C943E000C943E000C943E0048
:100040000C943E000C943E000C943E000C943E0038
:100050000C943E000C943E000C943E000C943E0028
:100060000C943E000C943E0011241FBECFEFD8E04C
:10007000DEBFCDBF0E9440000C9462000C940000D3
:10008000219A809181008861809381008091800015
:1000900082608093800080918000806880938000DF
:1000A00088E09DE390938700809386008AE196E044
:1000B000909389008093880080918100856080936F
:0800C0008100FFCFF894FFCF8F
:00000001FF
