:100000000C9434000C9488000C9451000C94510012
:100010000C9451000C94DB000C9451000C94510092
:100020000C9451000C9451000C9451000C9451000C
:100030000C9451000C9451000C9451000C945100FC
:100040000C9451000C9451000C9451000C945100EC
:100050000C9451000C9451000C9451000C945100DC
:100060000C9451000C94510011241FBECFEFD8E026
:10007000DEBFCDBF11E0A0E0B1E0E6E8F2E002C0F3
:1000800005900D92A230B107D9F721E0A2E0B1E0CE
:1000900001C01D92A330B207E1F70E9420010C9429
:1000A00041010C94000080910201811102C015B839
:1000B0000895813059F1823049F1833039F184302B
:1000C00029F1853019F1863009F18730F9F088304F
:1000D00011F480E11BC0893011F481E117C08A302E
:1000E00011F482E113C08B3011F483E10FC08C3026
:1000F00011F484E10BC08D3011F485E107C08E301E
:1001000011F486E103C08F3011F487E185B90895B9
:100110001F920F920FB60F9211242F933F934F937C
:100120005F936F937F938F939F93AF93BF93EF935F
:10013000FF938091690081FF0FC08091690080FD6D
:100140000BC04A9905C0809102018F5F8093020124
:100150008091690081600BC08091690081FF09C0B6
:100160008091690080FF05C0809169008E7F809337
:1001700069002FEF83EC99E0215080409040E1F737
:1001800000C0000080910201803110F01092020145
:100190000E945300FF91EF91BF91AF919F918F917A
:1001A0007F916F915F914F913F912F910F900FBE73
:1001B0000F901F9018951F920F920FB60F92112457
:1001C0002F933F934F935F936F937F938F939F935F
:1001D000AF93BF93CF93EF93FF93C9B18091000189
:1001E0008C2784FF19C0C4FD17C02FEF83EC99E062
:1001F000215080409040E1F700C000008091020152
:10020000811103C080E1809302018091020181503D
:10021000809302010E945300C0930001FF91EF916F
:10022000CF91BF91AF919F918F917F916F915F918E
:100230004F913F912F910F900FBE0F901F901895E7
:10024000F89484B1876184B98AB18B7E8AB98BB105
:1002500084618BB9809169008A6080936900809184
:1002600069008A7F80936900809168008460809330
:10027000680080916D00806180936D00E89A7894A9
:06028000FFCFF894FFCF50
:02028600FF0077
:00000001FF
